:0400000002010032C7
:01000B0032C2
:030013005129323E
:01001B0032B2
:0100230032AA
:01002B0032A2
:1001000075811F3180318CE540B4100431D6210552
:0E011000B4110431EB2105B41204912621052F
:0E011E00B4150471BB2105B41604715B2105F4
:0E012C00B4170471632105B41804716B21052A
:0E013A00B4190471732105B42004717B2105F2
:0E014800B4210471832105B42204718B2105BA
:0E015600B4230471932105B42404719B210588
:0E016400B4250471A32105B4260471AB210556
:0E017200B4270471B32105B42802516E210593
:0E018000758920758DFDD28E759850227840BD
:0F018E003098FDE599C298F608B47FF422C29923
:0F019D00F5993099FD22B2B731B7B2B7227C0184
:0F01AC007DFF7EFFDEFEDDFADCF6227E3C7DFF6E
:0F01BB00DDFEDEFA227C047DFF7EFFDEFEDDFA34
:1001CA00DCF6227EC87DFFDDFEDEFA22784079BFAA
:0F01DA0089B07D0008E6B47F04EDF590222DFD7D
:1001E90021DE75B0BF7B0AAF90784008E6FA790145
:1001F900D28AD2AAD2AFEFC39AF590FF31C0EF2AC3
:0F020900F590FF31C0DBEF759000B90112743032
:10021800319B31B77400319B31B7747F319B31B753
:0F02280022C0E07430319B31B77401319B31B784
:100237007400319B31B77400319B31B77400319B27
:1002470031B77400319B31B77400319B31B77400FB
:10025700319B31B77400319B31B7747F319B31B714
:100267007B01D0E079002275B0BF7B0AAF90784060
:1002770008E6FA7901D28AD2AAD2AFEF2AF590FF1F
:0F02870031C0EFC39AF590FF31C0DBEF759000E7
:0F029600B901127430319B31B77400319B31B70D
:1002A500747F319B31B722496E70757420796F75F3
:1002B500722069643A54616B652F52657475726E6C
:1002C5003F20312F32494420646F65736E6F74206F
:1002D5006578697374496E7661696C642049442157
:1002E5005072657373206F6B3E2074616B65537438
:1002F5006174696F6E20697320656D7074795363DD
:100305006F6F7465722074616B656E50726573737F
:10031500206F6B3E2072657475726E5374617469DB
:100325006F6E2069732066756C6C53636F6F7465AF
:10033500722072657475726E656454696D652065A9
:1003450078706972656450617920746865207061A0
:0E035500796D656E74219002AC780E910C22C9
:100363009002BA7810910C229002CA7810910C2254
:100373009002DA780B910C229002E57810910C220E
:100383009002F37810910C22900303780D910C22C4
:100393009003107810910C22900320780F910C2277
:1003A30090032F7810910C2290033F780C910C222C
:1003B30090034B7810910C22743871E5740871E541
:1003C3009121740671E5740F71E522C0077580FFF2
:0F03D3007FFFC295D296D297308702DFFBC29789
:1003E200D0072271CEC295C296D297F580C29722CB
:0F03F20071CED295C296D297F580C29722741021
:0F04010071E5742071F2741071E522C0E071BBD7
:1004100071E5E49371F2A3E4D8F974C071E5D0E01A
:1004200022740171E5227560707C0979707700098A
:10043000DCFB919731AAB40002805AB40C1115600C
:0F044000A860B86F06056071FF804A760080469D
:10044F00B40B257C0979707430319B31B7E7319B40
:0F045F0031B709DCF8747F319B31B77C097978AC
:10046E00770019DCFB75607022B4F7028019A86062
:0F047E000560B879041560800EF6B40A042426D0
:10048D008002243071F28000809B9004C4919D22E3
:0F049D0091A520D5FBE99322D2D57BF77900EB0F
:1004AC00F5A000E5A0D37D0433500A09DDFAEBD3A7
:1004BC0013FB40EB22C2D5220C0B0A0908070605D8
:0804CC0004030201000000001E
:00000001FF
