:0400000002010032C7
:01000B0032C2
:0100130032BA
:01001B0032B2
:0100230032AA
:01002B0032A2
:0E01000075811F3133313FE540B41002315696
:0F010E00B411023157B41202316EB4150251A56B
:0F011D00B416025185B41702518DB418025195D2
:0F012C00B41902519D80D2758920758DFDD28E38
:0F013B007598502278403098FDE599C298F608E3
:10014A00B47FF422C299F5993099FD2222227C01CA
:0F015A007DFF7EFFDEFEDDFADCF6227E2D7DFFCF
:0F016900DDFEDEFA227560707C0979707700097F
:10017800DCFB510F3158B40002805AB40C111560E1
:0F018800A860B86F06056051E9804A760080468E
:10019700B40B257C0979707430314E3165E7314EE7
:0F01A700316509DCF8747F314E31657C09797858
:1001B600770019DCFB75607022B4F7028019A8601D
:0F01C6000560B879041560800EF6B40A0424268B
:0E01D5008002243051DC8000809B510F315895
:0E01E300B4010B7433314E3165747F314E22FE
:1001F100B402EB7434314E3165747F314E22510FAC
:0E0201003158B40BF97431314E747F314E22F6
:10020F0090023C511522511D20D5FBE99322D2D5E6
:10021F007BF77900EBF5A000E5A0D37D0433500AFE
:10022F0009DDFAEBD313FB40EB22C2D5220C0B0AEC
:10023F0009080706050403020100000000496E705B
:10024F00757420796F75722069643A54616B652FEC
:10025F0052657475726E3F20312F30494420646FA0
:10026F0065736E6F74206578697374496E76616912
:0E027F006C642049442190024C780E51F62206
:10028D0090025A781051F62290026A781051F62297
:10029D0090027A780B51F622743851CF740851CFF1
:1002AD00710D740651CF740F51CF22C0077580FFA9
:0F02BD007FFFC295D296D297308702DFFBC297A0
:1002CC00D0072251B8C295C296D297F580C2972218
:0F02DC0051B8D295C296D297F580C2972274106E
:0F02EB0051CF742051DC741051CF22C0E0710D3F
:1002FA00748051CFE49351DCA3E4D8F974C051CF90
:08030A00D0E022740151CF2262
:00000001FF
