:0400000002010032C7
:01000B0032C2
:030013005108325F
:01001B0032B2
:0100230032AA
:01002B0032A2
:1001000075811F317E318AE540B4100431CB80F512
:0E011000B4110431E080EEB4120471C180E736
:0E011E00B41504715480E0B4160451F480D975
:0E012C00B4170451FC80D2B41804710480CBC7
:0E013A00B41904710C80C4B42004711480BD8B
:0E014800B42104711C80B6B42204712480AF6F
:0E015600B42304712C80A8B42404713480A159
:0E016400B42504713C809AB426047144809343
:0F017200B42702714CB42802511D808775892073
:10018100758DFDD28E7598502278403098FDE59995
:10019100C298F608B47FF422C299F5993099FD22EC
:0F01A100B2B731B5B2B7227C017DFF7EFFDEFE23
:1001B000DDFADCF6227E3C7DFFDDFEDEFA227C04E9
:0F01C0007DFF7EFFDEFEDDFADCF622784079FE61
:0F01CF0089907D0008E6B47F04EDF580222DFDB8
:0F01DE0021D379FE89907B0AAF80784008E6FA3A
:1001ED00D28AD2AAD2AFEFC39AF580FF31BEEF2AE1
:0F01FD00F580FF31BEDBEF75800022C0E074306B
:10020C00319974013199747F31997B01D0E031B50A
:10021C002279FE89907B0AAF80784008E6FAD28A70
:10022C00D2AAD2AFEF2AF580FF31BEEFC39AF58088
:10023C00FF31BEDBEF75800022496E70757420793A
:10024C006F75722069643A54616B652F52657475D1
:10025C00726E3F20312F32494420646F65736E6F8C
:10026C0074206578697374496E7661696C64204991
:10027C0044215072657373206F6B3E2074616B6503
:10028C0053746174696F6E20697320656D70747935
:10029C0053636F6F7465722074616B656E50726519
:1002AC007373206F6B3E2072657475726E5374613C
:1002BC0074696F6E2069732066756C6C53636F6F15
:1002CC007465722072657475726E656454696D65BF
:1002DC002065787069726564506179207468652056
:1002EC007061796D656E7421900245780E71A5224E
:1002FC00900253781071A522900263781071A52298
:10030C00900273780B71A52290027E781071A52251
:10031C0090028C781071A52290029C780D71A52208
:10032C009002A9781071A5229002B9780F71A522BC
:10033C009002C8781071A5229002D8780C71A52271
:10034C009002E4781071A5227438717E7408717E65
:10035C0071BC7406717E740F717E22C0077580FFAC
:0F036C007FFFC295D296D297308702DFFBC297F0
:10037B00D007227167C295C296D297F580C2972299
:0F038B007167D295C296D297F580C297227410EF
:0F039A00717E7420718B7410717E22C0E071BC73
:1003A9007480717EE493718BA3E4D8F974C0717E73
:0F03B900D0E0227401717E227560707C0979702A
:0E03C800770009DCFB913231A8B40002805AA4
:1003D600B40C111560A860B86F0605607198804A64
:0F03E60076008046B40B257C097970743031990C
:1003F50031B5E7319931B509DCF8747F319931B5FB
:100405007C097978770019DCFB75607022B4F702F6
:0E0415008019A8600560B879041560800EF6A5
:0F042300B40A04242680022430718B8000809B51
:1004320090045F913822914020D5FBE99322D2D5D6
:100442007BF77900EBF5A000E5A0D37D0433500AD9
:1004520009DDFAEBD313FB40EB22C2D5220C0B0AC7
:0D0462000908070605040302010000000060
:00000001FF
